{
  "contractName": "Token",
  "abi": [
    {
      "inputs": [
        {
          "internalType": "uint32",
          "name": "tokens",
          "type": "uint32"
        }
      ],
      "name": "mint",
      "outputs": [],
      "stateMutability": "nonpayable",
      "type": "function"
    },
    {
      "inputs": [
        {
          "internalType": "uint32",
          "name": "value",
          "type": "uint32"
        },
        {
          "internalType": "address",
          "name": "to",
          "type": "address"
        }
      ],
      "name": "transfer",
      "outputs": [],
      "stateMutability": "nonpayable",
      "type": "function"
    },
    {
      "inputs": [
        {
          "internalType": "address",
          "name": "addr",
          "type": "address"
        }
      ],
      "name": "balanceOf",
      "outputs": [
        {
          "internalType": "uint32",
          "name": "",
          "type": "uint32"
        }
      ],
      "stateMutability": "view",
      "type": "function"
    }
  ],
  "bytecode": "0x608060405234801561001057600080fd5b50610481806100206000396000f3fe608060405234801561001057600080fd5b50600436106100415760003560e01c806370a0823114610046578063a71bbebe146100a4578063fe9e68d4146100d8575b600080fd5b6100886004803603602081101561005c57600080fd5b81019080803573ffffffffffffffffffffffffffffffffffffffff16906020019092919050505061012c565b604051808263ffffffff16815260200191505060405180910390f35b6100d6600480360360208110156100ba57600080fd5b81019080803563ffffffff169060200190929190505050610184565b005b61012a600480360360408110156100ee57600080fd5b81019080803563ffffffff169060200190929190803573ffffffffffffffffffffffffffffffffffffffff16906020019092919050505061020c565b005b60008060008373ffffffffffffffffffffffffffffffffffffffff1673ffffffffffffffffffffffffffffffffffffffff16815260200190815260200160002060009054906101000a900463ffffffff169050919050565b60008163ffffffff161161019757600080fd5b806000803373ffffffffffffffffffffffffffffffffffffffff1673ffffffffffffffffffffffffffffffffffffffff16815260200190815260200160002060008282829054906101000a900463ffffffff160192506101000a81548163ffffffff021916908363ffffffff16021790555050565b600073ffffffffffffffffffffffffffffffffffffffff168173ffffffffffffffffffffffffffffffffffffffff16141561024657600080fd5b6000803373ffffffffffffffffffffffffffffffffffffffff1673ffffffffffffffffffffffffffffffffffffffff16815260200190815260200160002060009054906101000a900463ffffffff1663ffffffff168263ffffffff1611156102ad57600080fd5b6000808273ffffffffffffffffffffffffffffffffffffffff1673ffffffffffffffffffffffffffffffffffffffff16815260200190815260200160002060009054906101000a900463ffffffff1663ffffffff166000808373ffffffffffffffffffffffffffffffffffffffff1673ffffffffffffffffffffffffffffffffffffffff16815260200190815260200160002060009054906101000a900463ffffffff16830163ffffffff161161036357600080fd5b816000803373ffffffffffffffffffffffffffffffffffffffff1673ffffffffffffffffffffffffffffffffffffffff16815260200190815260200160002060008282829054906101000a900463ffffffff160392506101000a81548163ffffffff021916908363ffffffff160217905550816000808373ffffffffffffffffffffffffffffffffffffffff1673ffffffffffffffffffffffffffffffffffffffff16815260200190815260200160002060008282829054906101000a900463ffffffff160192506101000a81548163ffffffff021916908363ffffffff160217905550505056fea2646970667358221220016670933bffd1ca88c62133ea8ab846073dbafa3a3aada1570ce91a9a6cf79064736f6c634300060c0033",
  "source": "pragma solidity 0.6.12;\n\ncontract Token {\n    mapping(address => uint32) balances;\n\n    function mint(uint32 tokens) external {\n        require(tokens > 0);\n        balances[msg.sender] += tokens;\n    }\n\n    function transfer(uint32 value, address to) external {\n        // test that not transferring to zero address\n        require(to != address(0));\n        // check that the value being sent is less than or equal to whats owned by msg.sender\n        require(value <= balances[msg.sender]);\n        // check for overflow\n        require(value + balances[to] > balances[to]);\n\n        balances[msg.sender] -= value;\n        balances[to] += value;\n    }\n\n    function balanceOf(address addr) public view returns (uint32) {\n        return balances[addr];\n    }\n}\n",
  "sourcePath": "/Users/Ali/exercism/solidity/exercises/token-transfer/contracts/token.sol",
  "compiler": {
    "name": "solc",
    "version": "0.6.12+commit.27d51765.Emscripten.clang"
  },
  "schemaVersion": "3.0.20",
  "updatedAt": "2020-11-29T01:26:03.176Z",
  "devdoc": {
    "kind": "dev",
    "methods": {},
    "version": 1
  },
  "userdoc": {
    "kind": "user",
    "methods": {},
    "version": 1
  }
}